:100000000C9446000C9465000C9465000C946500FB
:100010000C9465000C9465000C9465000C946500CC
:100020000C9465000C9465000C9465000C946500BC
:100030000C9465000C94E3000C9465000C9465002E
:100040000C9465000C9465000C9465000C9465009C
:100050000C9465000C9465000C9465000C9465008C
:100060000C9465000C9465000C9465000C9465007C
:100070000C9465000C9465000C9465000C9465006C
:100080000C9465000C9465000C94650011241FBE4F
:10009000CFEFD0E4DEBFCDBF11E0A0E0B1E0EEE8ED
:1000A000F5E000E00BBF02C007900D92A431B1074C
:1000B000D9F721E0A4E1B1E001C01D92AC31B20753
:1000C000E1F70E9489020C94C5020C940000CF93C2
:1000D000DF9300D000D0CDB7DEB769837A838B83FE
:1000E0009C8389819A81AB81BC818093000190932C
:1000F0000101A0930201B09303018091000190914E
:100100000101A0910201B091030180931501909328
:100110001601A0931701B093180100000F900F90E3
:100120000F900F90DF91CF910895CF93DF93CDB7CC
:10013000DEB781E890E02BE0FC01208388E890E0C6
:100140002DE730E0FC01318320838FE690E022E050
:10015000FC01208384E890E0FC01118210828091F0
:10016000000190910101A0910201B09103018093DF
:10017000150190931601A0931701B09318018FE514
:1001800090E02FE530E0F90120812068FC01208318
:100190000000DF91CF910895CF93DF93CDB7DEB705
:1001A00081E890E0FC0110820000DF91CF9108957A
:1001B000CF93DF93CDB7DEB781E0809314010000C9
:1001C000DF91CF9108951F920F9200905F000F92E0
:1001D000112400905B000F922F933F934F935F93F6
:1001E0006F937F938F939F93AF93BF93EF93FF93FF
:1001F000CF93DF93CDB7DEB78091150190911601B3
:10020000A0911701B09118010197A109B10980933C
:10021000150190931601A0931701B09318018091D6
:10022000150190911601A0911701B0911801892B29
:100230008A2B8B2B91F40E94D80080910001909121
:100240000101A0910201B0910301809315019093E7
:100250001601A0931701B09318010000DF91CF9110
:10026000FF91EF91BF91AF919F918F917F916F918E
:100270005F914F913F912F910F9000925B000F90F3
:1002800000925F000F901F901895CF93DF9300D0DE
:100290001F92CDB7DEB789837B836A8389818A30D9
:1002A00031F48A819B81BC018DE00E94450180EC84
:1002B00090E0FC018081882F90E080729927892B43
:1002C000B1F386EC90E02981FC01208380E090E08E
:1002D0000F900F900F90DF91CF910895CF93DF9300
:1002E000CDB7DEB78AE790E02AE730E0F901208158
:1002F000206EFC0120830000DF91CF910895CF9301
:10030000DF9300D000D0CDB7DEB78B836C831A8229
:10031000198233C08C81813031F488E290E028E08A
:10032000FC01208308C08C81823029F488E290E0AF
:1003300020E2FC01208388E290E028E230E0F9012D
:100340002081422F2B81222F30E0098002C0359579
:1003500027950A94E2F72170242BFC01208388E280
:1003600090E028E230E0F90120812260FC01208346
:1003700089819A8101969A83898389819A810897D4
:100380004CF28C81813051F488E290E028E230E038
:10039000F90120812460FC0120830CC08C81823013
:1003A00049F488E290E028E230E0F9012081206100
:1003B000FC01208388E290E0FC01108200000F9095
:1003C0000F900F900F90DF91CF910895CF93DF930F
:1003D000CDB7DEB780911A0190911B018130910554
:1003E00081F08130910530F08230910579F10397E9
:1003F000A1F13AC081E090E090931B0180931A0133
:1004000038C088E790E0FC01808191818A3B91406F
:1004100038F482E090E090931B0180931A0129C088
:1004200088E790E0FC01808191818338924038F028
:1004300083E090E090931B0180931A011AC081E041
:1004400090E090931B0180931A0113C081E090E02B
:1004500090931B0180931A010CC081E090E090936F
:100460001B0180931A0105C010921B0110921A0102
:10047000000080911A0190911B018130910569F073
:100480008130910530F08230910569F00397F1F0E9
:1004900030C080E8809319012CC085E290E021E013
:1004A000FC01208326C085E290E022E0FC0120834D
:1004B00080911901803821F481E08093190119C0DD
:1004C00080911901880F8093190113C085E290E093
:1004D00024E0FC01208380911901813021F480E81F
:1004E0008093190105C080911901869580931901A7
:1004F000000088E290E020911901FC0120838BE24A
:1005000090E020911201FC0120830000DF91CF9147
:100510000895CF93DF93CDB7DEB781E290E0FC0181
:10052000108282E290E02FEFFC01208384E290E0D1
:100530002FEFFC01208385E290E0FC01108287E22E
:1005400090E02FEFFC01208388E290E0FC01108214
:100550008AE290E02FEFFC0120838BE290E0FC0127
:1005600010826AE070E080E090E00E9467000E94E4
:1005700095000E946E010E94E60100008091140126
:0E0580008823E1F310921401F6CFF894FFCF18
:10058E000100000000000002000000004501000014
:04059E000000FE005B
:00000001FF
