:100000000C9446000C9465000C9465000C946500FB
:100010000C9465000C9465000C9465000C946500CC
:100020000C9465000C9465000C9465000C946500BC
:100030000C9465000C94E3000C9465000C9465002E
:100040000C9465000C9465000C9465000C9465009C
:100050000C9465000C9465000C9465000C9465008C
:100060000C9465000C9465000C9465000C9465007C
:100070000C9465000C9465000C9465000C9465006C
:100080000C9465000C9465000C94650011241FBE4F
:10009000CFEFD0E4DEBFCDBF11E0A0E0B1E0EAECED
:1000A000F9E000E00BBF02C007900D92AA31B10742
:1000B000D9F721E0AAE1B1E001C01D92A134B20755
:1000C000E1F70E9464030C94E3040C940000CF93C6
:1000D000DF9300D000D0CDB7DEB769837A838B83FE
:1000E0009C8389819A81AB81BC818093000190932C
:1000F0000101A0930201B09303018091000190914E
:100100000101A0910201B091030180931B01909322
:100110001C01A0931D01B0931E0100000F900F90D1
:100120000F900F90DF91CF910895CF93DF93CDB7CC
:10013000DEB781E890E02BE0FC01208388E890E0C6
:100140002DE730E0FC01318320838FE690E022E050
:10015000FC01208384E890E0FC01118210828091F0
:10016000000190910101A0910201B09103018093DF
:100170001B0190931C01A0931D01B0931E018FE5FC
:1001800090E02FE530E0F90120812068FC01208318
:100190000000DF91CF910895CF93DF93CDB7DEB705
:1001A00081E890E0FC0110820000DF91CF9108957A
:1001B000CF93DF93CDB7DEB781E080931A010000C3
:1001C000DF91CF9108951F920F9200905F000F92E0
:1001D000112400905B000F922F933F934F935F93F6
:1001E0006F937F938F939F93AF93BF93EF93FF93FF
:1001F000CF93DF93CDB7DEB780911B0190911C01A7
:10020000A0911D01B0911E010197A109B109809330
:100210001B0190931C01A0931D01B0931E018091BE
:100220001B0190911C01A0911D01B0911E01892B11
:100230008A2B8B2B91F40E94D80080910001909121
:100240000101A0910201B091030180931B019093E1
:100250001C01A0931D01B0931E010000DF91CF91FE
:10026000FF91EF91BF91AF919F918F917F916F918E
:100270005F914F913F912F910F9000925B000F90F3
:1002800000925F000F901F901895CF93DF93CDB72A
:10029000DEB72C970FB6F894DEBF0FBECDBF6D83CF
:1002A0007E838F83988729873A874B875C878D81E8
:1002B0009E81AF81B88529853A854B855C85BC01D7
:1002C000CD010E94C104DC01CB0189839A83AB83F9
:1002D000BC8389819A81AB81BC81892B8A2B8B2B32
:1002E00029F489859A85AB85BC8511C089859A8555
:1002F000AB85BC858D839E83AF83B88789819A81C6
:10030000AB81BC8189879A87AB87BC87D0CFBC0182
:10031000CD012C960FB6F894DEBF0FBECDBFDF9196
:10032000CF910895CF93DF9300D01F92CDB7DEB762
:1003300089837B836A8389818A3031F48A819B81B6
:10034000BC018DE00E94920180EC90E0FC01808174
:10035000882F90E080729927892BB1F386EC90E08A
:100360002981FC01208380E090E00F900F900F9096
:10037000DF91CF910895CF93DF931F92CDB7DEB772
:1003800089838CE790E02981283028F02CE730E041
:10039000F901208101C02981FC01208310921F01F5
:1003A00006C0000080911F018F5F80931F01809124
:1003B0001F018F30B0F300000F90DF91CF910895AF
:1003C000CF93DF93CDB7DEB78AE790E02AE730E03E
:1003D000F9012081206EFC0120830000DF91CF9184
:1003E0000895CF93DF9300D0CDB7DEB79A8389838A
:1003F00080E00E94BB0189819A8182309105C1F021
:10040000833091052CF4009749F0019761F039C0D1
:100410008330910561F1049779F133C081E090E078
:100420009A83898331C082E090E09A8389832CC0CB
:1004300088E790E0FC01808191818A3B914028F41B
:1004400083E090E09A8389831FC088E790E0FC01F5
:10045000808191818338924028F084E090E09A83F3
:10046000898312C082E090E09A8389830DC082E084
:1004700090E09A83898308C082E090E09A83898320
:1004800003C01A821982000089819A818230910505
:1004900031F1833091052CF4009719F1019739F06F
:1004A00025C08330910539F0049779F01FC080E8AA
:1004B000809312011BC0809112018823A4F08091C7
:1004C0001201880F809312010EC0809112018230B8
:1004D00060F08091120186958093120106C00000A1
:1004E00005C0000003C0000001C0000088E290E0E9
:1004F00020911201FC0120838BE290E020911301F6
:10050000FC01208389819A810F900F90DF91CF9118
:100510000895CF93DF9300D0CDB7DEB79A83898358
:1005200081E00E94BB0189819A8182309105C1F0EE
:10053000833091052CF4009749F0019761F039C0A0
:100540008330910561F1049779F133C081E090E047
:100550009A83898331C082E090E09A8389832CC09A
:1005600088E790E0FC01808191818A3B914028F4EA
:1005700084E090E09A8389831FC088E790E0FC01C3
:10058000808191818338924028F083E090E09A83C3
:10059000898312C082E090E09A8389830DC082E053
:1005A00090E09A83898308C082E090E09A838983EF
:1005B00003C01A821982000089819A8182309105D4
:1005C00059F1833091052CF4009741F1019739F0EE
:1005D0002AC08330910539F0049781F024C08EEF52
:1005E0008093130120C0809113018E3FC8F4809145
:1005F0001301869580688093130112C080911301C6
:10060000803F80F080911301882F90E0880F991F20
:1006100081608093130106C0000005C0000003C084
:10062000000001C0000088E290E020911201FC016E
:1006300020838BE290E020911301FC0120838981CB
:100640009A810F900F90DF91CF910895CF93DF9310
:1006500000D0CDB7DEB79A83898389819A818130B2
:10066000910551F08230910561F0892B79F481E098
:1006700090E09A8389830DC082E090E09A83898319
:1006800008C081E090E09A83898303C01A821982AE
:10069000000089819A818130910531F08230910585
:1006A00039F0892B49F009C080E00E94BB0105C0E8
:1006B00082E00E94BB0101C0000089819A810F90F5
:1006C0000F90DF91CF9108950F931F93CF93DF93F6
:1006D000CDB7DEB72B970FB6F894DEBF0FBECDBFF8
:1006E00081E290E0FC01108282E290E02FEFFC01B9
:1006F000208387E290E02FEFFC01208388E290E0E6
:10070000FC0110828AE290E02FEFFC0120838BE253
:1007100090E0FC0110820E94E00186E0E4E1F1E05B
:10072000DE01169601900D928A95E1F783E090E044
:100730009C838B838FEF8D838D81809320018BE44D
:1007400090E0A0E0B0E08093210190932201A0937B
:100750002301B09324018091210190912201A09165
:100760002301B09124018093250190932601A09349
:100770002701B093280181EF91E090932A018093A3
:1007800029018D8180932B018BE490E0A0E0B0E003
:1007900080932C0190932D01A0932E01B0932F01F3
:1007A00080912C0190912D01A0912E01B0912F01EB
:1007B0008093300190933101A0933201B0933301C3
:1007C00089E892E090933501809334018D81809384
:1007D000360181E090E0A0E0B0E080933701909393
:1007E0003801A0933901B0933A018091370190917B
:1007F0003801A0913901B0913A0180933B01909367
:100800003C01A0933D01B0933E0186E293E09093BA
:10081000400180933F0161E070E080E090E00E9441
:1008200067000E9495001A8219829BC089819A8173
:10083000880F991F9E012F5F3F4F820F931F0596D0
:10084000FC0180819181FC012581368147815085A1
:1008500089819A81880F991FBE016F5F7F4F860F34
:10086000971F0596FC0180819181FC018181928115
:10087000A381B481281739074A075B0709F045C0EF
:1008800089819A81880F991F9E012F5F3F4F820FA8
:10089000931F0596FC010081118189819A81880F3F
:1008A000991F9E012F5F3F4F820F931F0596FC01FA
:1008B00080819181FC012185328589819A81880F0F
:1008C000991FAE014F5F5F4F840F951F0596FC0186
:1008D00080819181FC018081082E000C990BF90127
:1008E0000995F801808389819A81880F991F9E015B
:1008F0002F5F3F4F820F931F0596FC0180819181EE
:10090000FC01158216821782108689819A81880FD0
:10091000991F9E012F5F3F4F820F931F0596FC0189
:100920002081318189819A81880F991FAE014F5FA3
:100930005F4F840F951F0596FC0180819181FC011A
:1009400085819681A781B0850196A11DB11DF90110
:1009500085839683A783B08789819A8101969A833C
:10096000898329813A818B819C812817390708F472
:100970005DCF000080911A018823E1F310921A01E3
:1009800052CFA1E21A2EAA1BBB1BFD010DC0AA1F4C
:10099000BB1FEE1FFF1FA217B307E407F50720F0E8
:1009A000A21BB30BE40BF50B661F771F881F991F63
:1009B0001A9469F760957095809590959B01AC01AC
:0A09C000BD01CF010895F894FFCFA8
:1009CA000100000000000002000000009201000087
:0A09DA00000080FE20012B01360111
:00000001FF
