:100000000C9454000C9473000C9473000C947300C3
:100010000C9473000C9473000C9473000C94730094
:100020000C9473000C9473000C9473000C94730084
:100030000C9473000C94F1000C9473000C947300F6
:100040000C9473000C9473000C9473000C94730064
:100050000C9473000C9473000C9473000C94730054
:100060000C9473000C9473000C9473000C94730044
:100070000C9473000C9473000C9473000C94730034
:100080000C9473000C9473000C94730037033C03BE
:10009000410364037A0390039503E503B403B803B3
:1000A000BB03C103C703D50311241FBECFEFD0E4A8
:1000B000DEBFCDBF11E0A0E0B1E0ECE6FBE000E088
:1000C0000BBF02C007900D92A831B107D9F721E00C
:1000D000A8E1B1E001C01D92A234B207E1F70E948D
:1000E00023040C94B4050C940000CF93DF9300D04C
:1000F00000D0CDB7DEB769837A838B839C838981F7
:100100009A81AB81BC818093000190930101A093FF
:100110000201B09303018091000190910101A0912F
:100120000201B09103018093190190931A01A093E9
:100130001B01B0931C0100000F900F900F900F90C7
:10014000DF91CF910895CF93DF93CDB7DEB781E8EC
:1001500090E02BE0FC01208388E890E02DE730E080
:10016000FC01318320838FE690E022E0FC012083B4
:1001700084E890E0FC01118210828091000190914E
:100180000101A0910201B0910301809319019093A4
:100190001A01A0931B01B0931C018FE590E02FE59D
:1001A00030E0F90120812068FC0120830000DF910C
:1001B000CF910895CF93DF93CDB7DEB781E890E07C
:1001C000FC0110820000DF91CF910895CF93DF935F
:1001D000CDB7DEB781E0809318010000DF91CF91A9
:1001E00008951F920F9200905F000F9211240090CB
:1001F0005B000F922F933F934F935F936F937F9387
:100200008F939F93AF93BF93EF93FF93CF93DF931E
:10021000CDB7DEB78091190190911A01A0911B0111
:10022000B0911C010197A109B10980931901909324
:100230001A01A0931B01B0931C01809119019091A8
:100240001A01A0911B01B0911C01892B8A2B8B2BC9
:1002500091F40E94E6008091000190910101A0912B
:100260000201B09103018093190190931A01A093A8
:100270001B01B0931C010000DF91CF91FF91EF9122
:10028000BF91AF919F918F917F916F915F914F91AE
:100290003F912F910F9000925B000F9000925F00B2
:1002A0000F901F901895CF93DF93CDB7DEB72C97A3
:1002B0000FB6F894DEBF0FBECDBF6D837E838F83F4
:1002C000988729873A874B875C878D819E81AF818C
:1002D000B88529853A854B855C85BC01CD010E9496
:1002E0008905DC01CB0189839A83AB83BC83898137
:1002F0009A81AB81BC81892B8A2B8B2B29F4898530
:100300009A85AB85BC8511C089859A85AB85BC85EE
:100310008D839E83AF83B88789819A81AB81BC81AD
:1003200089879A87AB87BC87D0CFBC01CD012C963B
:100330000FB6F894DEBF0FBECDBFDF91CF91089509
:10034000CF93DF9300D01F92CDB7DEB789837B8335
:100350006A8389818A3031F48A819B81BC018DE076
:100360000E94A00180EC90E0FC018081882F90E049
:1003700080729927892BB1F386EC90E02981FC01EA
:10038000208380E090E00F900F900F90DF91CF914D
:100390000895CF93DF93CDB7DEB78AE790E02AE7E1
:1003A00030E0F9012081206EFC0120830000DF9104
:1003B000CF910895CF93DF9300D0CDB7DEB79A8366
:1003C000898389819A8182309105C1F083309105BA
:1003D0002CF4009749F0019761F039C08330910502
:1003E00061F1049779F133C081E090E09A838983C9
:1003F00031C082E090E09A8389832CC088E790E046
:10040000FC01808191818A3B914028F483E090E057
:100410009A8389831FC088E790E0FC0180819181E5
:100420008338924028F084E090E09A83898312C058
:1004300082E090E09A8389830DC082E090E09A8305
:10044000898308C082E090E09A83898303C01A827E
:100450001982000089819A818230910509F4DDC0FA
:100460008330910534F4009709F4D9C0019741F025
:10047000DBC08330910561F0049709F46CC0D4C0EF
:1004800085E290E021E0FC01208310924101CCC084
:1004900085E290E022E0FC01208388E790E0FC0107
:1004A000808191818139914088F488E790E0FC0156
:1004B000808191818D32914048F084E680934101A2
:1004C00085E290E021E0FC01208344C088E790E0D1
:1004D000FC01808191818D32914088F488E790E021
:1004E000FC0180819181893C910548F082E38093F1
:1004F000410185E290E022E0FC0120832BC088E7E7
:1005000090E0FC0180819181893C910588F488E725
:1005100090E0FC01808191818536910548F089E168
:100520008093410185E290E024E0FC01208312C029
:1005300088E790E0FC01808191818536910508F083
:1005400070C08AE08093410185E290E028E0FC01E0
:10055000208367C066C085E290E024E0FC01208330
:1005600088E790E0FC01808191818835924088F095
:1005700088E790E0FC01808191818C3B924048F4B7
:1005800084E68093410185E290E021E0FC01208334
:1005900043C088E790E0FC01808191818C3B9240D0
:1005A00088F088E790E0FC0180819181803293405F
:1005B00048F482E38093410185E290E022E0FC016F
:1005C00020832AC088E790E0FC01808191818032FD
:1005D000934088F088E790E0FC0180819181843825
:1005E000934048F489E18093410185E290E024E062
:1005F000FC01208311C088E790E0FC01808191819B
:100600008438934080F08AE08093410185E290E055
:1006100028E0FC01208307C006C0000005C00000E0
:1006200003C0000001C0000089819A810F900F90E3
:10063000DF91CF910895CF93DF9300D0CDB7DEB790
:100640009A83898389819A81092E000CAA0BBB0B9E
:1006500040E050E026E030E0841B950B2817390776
:1006600008F468C08A5B9F4FFC010C94AB0581E0E5
:1006700090E09A83898364C082E090E09A838983C2
:100680005FC088E790E0FC01808191818A3B9140C6
:1006900038F483E090E09A8389831092400150C03F
:1006A00088E790E0FC01808191818338924038F0A6
:1006B00084E090E09A8389831092400141C082E0F7
:1006C00090E09A8389833CC09091400180914101E0
:1006D000981728F483E090E09A8389832EC0909144
:1006E000400180914101981740F185E090E09A83A4
:1006F000898323C09091400180914101981728F48B
:1007000084E090E09A8389831AC09091400180919F
:1007100041019817A0F086E090E09A8389830FC08A
:1007200082E090E09A8389830BC082E090E09A8314
:10073000898306C01A82198203C0000001C000002C
:1007400089819A81092E000CAA0BBB0B40E050E076
:1007500026E030E0841B950B28173907A0F1835B56
:100760009F4FFC010C94AB0580E880931D012EC0C7
:10077000109240012BC0809140018F5F8093400117
:1007800025C0809140018F5F809340011FC0809100
:100790001D01803821F481E080931D0117C08091F4
:1007A0001D01880F80931D0111C080911D018130B2
:1007B00021F480E880931D0109C080911D01869578
:1007C00080931D0103C0000001C0000089819A814F
:1007D0000F900F90DF91CF910895CF93DF9300D0CA
:1007E000CDB7DEB79A83898389819A81009719F002
:1007F000019731F00AC081E090E09A83898308C0B4
:1008000081E090E09A83898303C01A8219820000F4
:1008100089819A81009779F0019709F00DC088E2EB
:1008200090E020911D01FC0120838BE290E02EEFEF
:10083000FC01208301C0000089819A810F900F90F4
:10084000DF91CF9108950F931F93CF93DF93CDB78F
:10085000DEB72B970FB6F894DEBF0FBECDBF81E297
:1008600090E0FC01108282E290E02FEFFC012083F7
:1008700084E290E02FEFFC01208385E290E0FC0110
:10088000108287E290E02FEFFC01208388E290E065
:10089000FC0110828AE290E02FEFFC0120838BE2C2
:1008A00090E0FC0110820E94C90186E0E2E1F1E0E3
:1008B000DE01169601900D928A95E1F783E090E0B3
:1008C0009C838B838FEF8D838D8180931F018AE0C2
:1008D00090E0A0E0B0E08093200190932101A093EC
:1008E0002201B09323018091200190912101A091D8
:1008F0002201B09123018093240190932501A093BC
:100900002601B09327018AED91E09093290180930D
:1009100028018D8180932A018AE090E0A0E0B0E078
:1009200080932B0190932C01A0932D01B0932E0165
:1009300080912B0190912C01A0912D01B0912E015D
:1009400080932F0190933001A0933101B093320135
:100950008BE193E090933401809333018D818093F8
:1009600035018AE090E0A0E0B0E0809336019093FA
:100970003701A0933801B0933901809136019091ED
:100980003701A0913801B091390180933A019093D9
:100990003B01A0933C01B0933D018DEE93E0909319
:1009A0003F0180933E016AE070E080E090E00E94A9
:1009B00075000E94A3001A8219829BC089819A81C6
:1009C000880F991F9E012F5F3F4F820F931F05963F
:1009D000FC0180819181FC01258136814781508510
:1009E00089819A81880F991FBE016F5F7F4F860FA3
:1009F000971F0596FC0180819181FC018181928184
:100A0000A381B481281739074A075B0709F045C05D
:100A100089819A81880F991F9E012F5F3F4F820F16
:100A2000931F0596FC010081118189819A81880FAD
:100A3000991F9E012F5F3F4F820F931F0596FC0168
:100A400080819181FC012185328589819A81880F7D
:100A5000991FAE014F5F5F4F840F951F0596FC01F4
:100A600080819181FC018081082E000C990BF90195
:100A70000995F801808389819A81880F991F9E01C9
:100A80002F5F3F4F820F931F0596FC01808191815C
:100A9000FC01158216821782108689819A81880F3F
:100AA000991F9E012F5F3F4F820F931F0596FC01F8
:100AB0002081318189819A81880F991FAE014F5F12
:100AC0005F4F840F951F0596FC0180819181FC0189
:100AD00085819681A781B0850A96A11DB11DF90176
:100AE00085839683A783B08789819A8101969A83AB
:100AF000898329813A818B819C812817390708F4E1
:100B00005DCF0000809118018823E1F31092180155
:100B100052CFA1E21A2EAA1BBB1BFD010DC0AA1FBA
:100B2000BB1FEE1FFF1FA217B307E407F50720F056
:100B3000A21BB30BE40BF50B661F771F881F991FD1
:100B40001A9469F760957095809590959B01AC011A
:100B5000BD01CF010895EE0FFF1F0024001C0BBE46
:0C0B60000790F691E02D0994F894FFCF67
:100B6C00010000000000000200000000A0010000D5
:080B7C0000001F012A013501F0
:00000001FF
