:100000000C9446000C9465000C9465000C946500FB
:100010000C9465000C9465000C9465000C946500CC
:100020000C9465000C9465000C9465000C946500BC
:100030000C9465000C94E3000C9465000C9465002E
:100040000C9465000C9465000C9465000C9465009C
:100050000C9465000C9465000C9465000C9465008C
:100060000C9465000C9465000C9465000C9465007C
:100070000C9465000C9465000C9465000C9465006C
:100080000C9465000C9465000C94650011241FBE4F
:10009000CFEFD0E4DEBFCDBF11E0A0E0B1E0E2E9F8
:1000A000F5E000E00BBF02C007900D92A231B1074E
:1000B000D9F721E0A2E1B1E001C01D92AB31B20756
:1000C000E1F70E9490020C94C7020C940000CF93B9
:1000D000DF9300D000D0CDB7DEB769837A838B83FE
:1000E0009C8389819A81AB81BC818093000190932C
:1000F0000101A0930201B09303018091000190914E
:100100000101A0910201B09103018093130190932A
:100110001401A0931501B093160100000F900F90E9
:100120000F900F90DF91CF910895CF93DF93CDB7CC
:10013000DEB781E890E02BE0FC01208388E890E0C6
:100140002DE730E0FC01318320838FE690E022E050
:10015000FC01208384E890E0FC01118210828091F0
:10016000000190910101A0910201B09103018093DF
:10017000130190931401A0931501B09316018FE51C
:1001800090E02FE530E0F90120812068FC01208318
:100190000000DF91CF910895CF93DF93CDB7DEB705
:1001A00081E890E0FC0110820000DF91CF9108957A
:1001B000CF93DF93CDB7DEB781E0809312010000CB
:1001C000DF91CF9108951F920F9200905F000F92E0
:1001D000112400905B000F922F933F934F935F93F6
:1001E0006F937F938F939F93AF93BF93EF93FF93FF
:1001F000CF93DF93CDB7DEB78091130190911401B7
:10020000A0911501B09116010197A109B109809340
:10021000130190931401A0931501B09316018091DE
:10022000130190911401A0911501B0911601892B31
:100230008A2B8B2B91F40E94D80080910001909121
:100240000101A0910201B0910301809313019093E9
:100250001401A0931501B09316010000DF91CF9116
:10026000FF91EF91BF91AF919F918F917F916F918E
:100270005F914F913F912F910F9000925B000F90F3
:1002800000925F000F901F901895CF93DF9300D0DE
:100290001F92CDB7DEB789837B836A8389818A30D9
:1002A00031F48A819B81BC018DE00E94450180EC84
:1002B00090E0FC018081882F90E080729927892B43
:1002C000B1F386EC90E02981FC01208380E090E08E
:1002D0000F900F900F90DF91CF910895CF93DF9300
:1002E000CDB7DEB78AE790E02AE730E0F901208158
:1002F000206EFC0120830000DF91CF910895CF9301
:10030000DF9300D000D0CDB7DEB78B836C831A8229
:10031000198233C08C81813031F488E290E028E08A
:10032000FC01208308C08C81823029F488E290E0AF
:1003300020E2FC01208388E290E028E230E0F9012D
:100340002081422F2B81222F30E0098002C0359579
:1003500027950A94E2F72170242BFC01208388E280
:1003600090E028E230E0F90120812260FC01208346
:1003700089819A8101969A83898389819A810897D4
:100380004CF28C81813051F488E290E028E230E038
:10039000F90120812460FC0120830CC08C81823013
:1003A00049F488E290E028E230E0F9012081206100
:1003B000FC01208388E290E0FC01108200000F9095
:1003C0000F900F900F90DF91CF910895CF93DF930F
:1003D000CDB7DEB78EEF809318018091190190910F
:1003E0001A0182309105E1F08330910528F40097DD
:1003F00049F0019771F047C083309105B1F104973E
:10040000D9F141C081E090E090931A0180931901E5
:100410003FC082E090E090931A018093190138C0A8
:1004200088E790E0FC01808191818A3B914038F41B
:1004300083E090E090931A018093190129C088E726
:1004400090E0FC01808191818338924038F084E013
:1004500090E090931A01809319011AC082E090E015
:1004600090931A018093190113C082E090E0909359
:100470001A01809319010CC082E090E090931A0158
:100480008093190105C010921A0110921901000001
:100490008091190190911A018230910571F1833098
:1004A000910528F4009759F1019739F029C083305C
:1004B000910539F0049799F023C080E880931701E3
:1004C0001FC080911701803821F481E080931701CB
:1004D00017C080911701880F8093170111C0809178
:1004E0001701813021F480E88093170109C08091C1
:1004F000170186958093170103C0000001C000001A
:1005000088E290E020911701FC0120838BE290E0CB
:1005100020911801FC0120830000DF91CF91089504
:10052000CF93DF93CDB7DEB784E290E02FEFFC01ED
:10053000208385E290E0FC01108287E290E02FEFBB
:10054000FC01208388E290E0FC0110828AE290E0C6
:100550002FEFFC0120838BE290E0FC0110826AE027
:1005600070E080E090E00E9467000E9495000E9489
:100570006E0110921A01109219010E94E60100000A
:10058000809112018823E1F310921201F6CFF894C2
:02059000FFCF9B
:100592000100000000000002000000004501000010
:0205A200000057
:00000001FF
